{
  "transactions": [
    {
      "hash": "0x618e878a3f8c6238048483d48c1a42f6b0854902fe89f76cddc5d047dbce32af",
      "transactionType": "CALL",
      "contractName": null,
      "contractAddress": "0xe6b5c6c9e44d5deda5a0932f73958036d0007c8a",
      "function": "registerSnap(address,bytes,bytes)",
      "arguments": [
        "0xDaAE56d84Aa8AF505AE90d1E88D7D60080B8cc6c",
        "0x0b24413d4490223aeba9ebdd88b2054634284133b43b9a693630d2841d0bbdbc58f1da122fc38d6204204d4dc93d88b0fe05fe90ba7b1da0166bb567838a33e61c",
        "0x9d2d73820220892f87fc9b64489bdf029eda5c673dfe00ae303755e2ea8e663e"
      ],
      "transaction": {
        "from": "0xd626249fea1ea2e905a11418a8775a21367f355f",
        "to": "0xe6b5c6c9e44d5deda5a0932f73958036d0007c8a",
        "gas": "0xa5d0",
        "value": "0x0",
        "input": "0x18bb0fda000000000000000000000000daae56d84aa8af505ae90d1e88d7d60080b8cc6c000000000000000000000000000000000000000000000000000000000000006000000000000000000000000000000000000000000000000000000000000000e000000000000000000000000000000000000000000000000000000000000000410b24413d4490223aeba9ebdd88b2054634284133b43b9a693630d2841d0bbdbc58f1da122fc38d6204204d4dc93d88b0fe05fe90ba7b1da0166bb567838a33e61c0000000000000000000000000000000000000000000000000000000000000000000000000000000000000000000000000000000000000000000000000000209d2d73820220892f87fc9b64489bdf029eda5c673dfe00ae303755e2ea8e663e",
        "nonce": "0x1",
        "chainId": "0xaa36a7"
      },
      "additionalContracts": [],
      "isFixedGasLimit": false
    }
  ],
  "receipts": [
    {
      "status": "0x1",
      "cumulativeGasUsed": "0x1408ea0",
      "logs": [
        {
          "address": "0xe6b5c6c9e44d5deda5a0932f73958036d0007c8a",
          "topics": [
            "0xaf9b11d18b1771527ed95e86044350d48dc8998b63a616c7b25fecd0e767b444",
            "0x000000000000000000000000daae56d84aa8af505ae90d1e88d7d60080b8cc6c",
            "0x062267541fa9dfe3ecdd83719325f1014bfc2f841cb8c6e22aeaaa5953eb186a",
            "0x0940de9117227d976e01e9bde4f81742bb98c6c75e59da484a3e34c315fc11e4"
          ],
          "data": "0x",
          "blockHash": "0xc72b9ceabd2644a04c2a99f8e1a84db44b8e04d85b066ffdfad7af0279cee315",
          "blockNumber": "0x84667d",
          "transactionHash": "0x618e878a3f8c6238048483d48c1a42f6b0854902fe89f76cddc5d047dbce32af",
          "transactionIndex": "0x190",
          "logIndex": "0x24b",
          "removed": false
        }
      ],
      "logsBloom": "0x00000000000400000000000000000040000000000000000000002000000000000000000000000000000000000000000000000000000000000000000000000000008000000000000000000000000000000000000000000000000000000000000000000000000000000000000000000000000000000000000000000000400000000000000000000000000000010000000000000000000000000000000000000000000000000000400000008000000000000000000000000000000000000010000000800000000000000000000001000000000040800000000000008000000000000000000000000000000000000000000000000000000000000000100000000000",
      "type": "0x2",
      "transactionHash": "0x618e878a3f8c6238048483d48c1a42f6b0854902fe89f76cddc5d047dbce32af",
      "transactionIndex": "0x190",
      "blockHash": "0xc72b9ceabd2644a04c2a99f8e1a84db44b8e04d85b066ffdfad7af0279cee315",
      "blockNumber": "0x84667d",
      "gasUsed": "0x780d",
      "effectiveGasPrice": "0x37b78195a",
      "from": "0xd626249fea1ea2e905a11418a8775a21367f355f",
      "to": "0xe6b5c6c9e44d5deda5a0932f73958036d0007c8a",
      "contractAddress": null
    }
  ],
  "libraries": [],
  "pending": [],
  "returns": {},
  "timestamp": 1751470356,
  "chain": 11155111,
  "commit": "8b0ba10"
}